{
  "contractName": "OpenSesame",
  "abi": [
    {
      "constant": true,
      "inputs": [],
      "name": "lastUpdate",
      "outputs": [
        {
          "name": "",
          "type": "uint256"
        }
      ],
      "payable": false,
      "stateMutability": "view",
      "type": "function"
    },
    {
      "anonymous": false,
      "inputs": [
        {
          "indexed": false,
          "name": "user",
          "type": "address"
        },
        {
          "indexed": false,
          "name": "permissions",
          "type": "string"
        }
      ],
      "name": "UserListUpdate",
      "type": "event"
    },
    {
      "constant": false,
      "inputs": [
        {
          "name": "user",
          "type": "address"
        },
        {
          "name": "permissions",
          "type": "string"
        }
      ],
      "name": "updateUser",
      "outputs": [],
      "payable": false,
      "stateMutability": "nonpayable",
      "type": "function"
    }
  ],
  "bytecode": "0x6060604052341561000f57600080fd5b6102038061001e6000396000f30060606040526004361061004c576000357c0100000000000000000000000000000000000000000000000000000000900463ffffffff168063b088981914610051578063c0463711146100cd575b600080fd5b341561005c57600080fd5b6100cb600480803573ffffffffffffffffffffffffffffffffffffffff1690602001909190803590602001908201803590602001908080601f016020809104026020016040519081016040528093929190818152602001838380828437820191505050505050919050506100f6565b005b34156100d857600080fd5b6100e06101d1565b6040518082815260200191505060405180910390f35b7fe4b1e866ee63a6c47fd65d08b0712b590940bb013afc342a57585651fe560cc38282604051808373ffffffffffffffffffffffffffffffffffffffff1673ffffffffffffffffffffffffffffffffffffffff16815260200180602001828103825283818151815260200191508051906020019080838360005b8381101561018b578082015181840152602081019050610170565b50505050905090810190601f1680156101b85780820380516001836020036101000a031916815260200191505b50935050505060405180910390a1436000819055505050565b600054815600a165627a7a72305820db701ff75c03e794332fdb2dd7bbacbb3d114cf7cb403002172a268f6f3d95fe0029",
  "source": "pragma solidity ^0.4.13; \n\ncontract OpenSesame {\n\n    uint public lastUpdate; \n\n    event UserListUpdate(\n        address user,\n        string permissions\n    );\n    \n    function updateUser(address user,string permissions)public {\n        //well have an empty string for permissions for now but that could be an array eventually it's own type of markdown\n        UserListUpdate(user, permissions);\n\t    lastUpdate = block.number;\n    }\n}\n",
  "sourcePath": "/media/m/GK/typescript/GK/Blockchain/contracts/OpenSesame.sol",
  "compiler": {
    "name": "solc",
    "version": "0.4.19+commit.c4cbbb05.Emscripten.clang"
  },
  "schemaVersion": "2.0.0",
  "updatedAt": "2018-03-23T14:03:28.381Z"
}