{
  "contractName": "OpenSesame",
  "abi": [
    {
      "constant": false,
      "inputs": [
        {
          "name": "user",
          "type": "address"
        },
        {
          "name": "permissions",
          "type": "string"
        }
      ],
      "name": "updateUser",
      "outputs": [],
      "payable": false,
      "stateMutability": "nonpayable",
      "type": "function"
    },
    {
      "anonymous": false,
      "inputs": [
        {
          "indexed": false,
          "name": "user",
          "type": "address"
        },
        {
          "indexed": false,
          "name": "permissions",
          "type": "string"
        }
      ],
      "name": "UserListUpdate",
      "type": "event"
    }
  ],
  "bytecode": "0x6060604052341561000f57600080fd5b6101c28061001e6000396000f300606060405260043610610041576000357c0100000000000000000000000000000000000000000000000000000000900463ffffffff168063b088981914610046575b600080fd5b341561005157600080fd5b6100c0600480803573ffffffffffffffffffffffffffffffffffffffff1690602001909190803590602001908201803590602001908080601f016020809104026020016040519081016040528093929190818152602001838380828437820191505050505050919050506100c2565b005b7fe4b1e866ee63a6c47fd65d08b0712b590940bb013afc342a57585651fe560cc38282604051808373ffffffffffffffffffffffffffffffffffffffff1673ffffffffffffffffffffffffffffffffffffffff16815260200180602001828103825283818151815260200191508051906020019080838360005b8381101561015757808201518184015260208101905061013c565b50505050905090810190601f1680156101845780820380516001836020036101000a031916815260200191505b50935050505060405180910390a150505600a165627a7a72305820aa244dbf0a6d6e546d969b8b0154c653d53a4c4a8685487aec6057e995faa5740029",
  "source": "pragma solidity ^0.4.11; \n\ncontract OpenSesame {\n    event UserListUpdate(\n        address user,\n        string permissions\n    );\n    \n    function updateUser(address user,string permissions) {\n        //well have an empty string for permissions for now but that could be an array eventually it's own type of markdown\n        UserListUpdate(user, permissions);\n    }\n}",
  "sourcePath": "/home/m/Desktop/GateKeeper_latest/GateKeeper_Blockchain/contracts/OpenSesame.sol",
  "compiler": {
    "name": "solc",
    "version": "0.4.18+commit.9cf6e910.Emscripten.clang"
  },
  "schemaVersion": "1.0.1",
  "updatedAt": "2018-01-14T00:33:43.321Z"
}